{
  "abi": [
    {
      "inputs": [
        {
          "internalType": "address",
          "name": "_daitoken",
          "type": "address"
        },
        {
          "internalType": "address",
          "name": "_simbatoken",
          "type": "address"
        },
        {
          "internalType": "address",
          "name": "_geminiDollar",
          "type": "address"
        },
        {
          "internalType": "address",
          "name": "_sUsd",
          "type": "address"
        },
        {
          "internalType": "address",
          "name": "_susdt",
          "type": "address"
        },
        {
          "internalType": "address",
          "name": "_usdcoin",
          "type": "address"
        }
      ],
      "stateMutability": "nonpayable",
      "type": "constructor"
    },
    {
      "anonymous": false,
      "inputs": [
        {
          "indexed": true,
          "internalType": "address",
          "name": "previousOwner",
          "type": "address"
        },
        {
          "indexed": true,
          "internalType": "address",
          "name": "newOwner",
          "type": "address"
        }
      ],
      "name": "OwnershipTransferred",
      "type": "event"
    },
    {
      "inputs": [
        {
          "internalType": "address",
          "name": "_token",
          "type": "address"
        }
      ],
      "name": "AddTokens",
      "outputs": [],
      "stateMutability": "nonpayable",
      "type": "function"
    },
    {
      "inputs": [
        {
          "internalType": "address",
          "name": "_token",
          "type": "address"
        }
      ],
      "name": "AllowedTokenForStaking",
      "outputs": [
        {
          "internalType": "bool",
          "name": "",
          "type": "bool"
        }
      ],
      "stateMutability": "nonpayable",
      "type": "function"
    },
    {
      "inputs": [],
      "name": "AwardIntrests",
      "outputs": [],
      "stateMutability": "payable",
      "type": "function"
    },
    {
      "inputs": [],
      "name": "RemoveLastToken",
      "outputs": [],
      "stateMutability": "nonpayable",
      "type": "function"
    },
    {
      "inputs": [
        {
          "internalType": "uint256",
          "name": "_amount",
          "type": "uint256"
        },
        {
          "internalType": "address",
          "name": "_token",
          "type": "address"
        }
      ],
      "name": "Stake",
      "outputs": [],
      "stateMutability": "payable",
      "type": "function"
    },
    {
      "inputs": [
        {
          "internalType": "uint256",
          "name": "",
          "type": "uint256"
        }
      ],
      "name": "allowedTokens",
      "outputs": [
        {
          "internalType": "address",
          "name": "",
          "type": "address"
        }
      ],
      "stateMutability": "view",
      "type": "function"
    },
    {
      "inputs": [
        {
          "internalType": "uint256",
          "name": "_price",
          "type": "uint256"
        }
      ],
      "name": "changeMinStakeFee",
      "outputs": [
        {
          "internalType": "uint256",
          "name": "",
          "type": "uint256"
        }
      ],
      "stateMutability": "view",
      "type": "function"
    },
    {
      "inputs": [],
      "name": "daiToken",
      "outputs": [
        {
          "internalType": "contract IERC20",
          "name": "",
          "type": "address"
        }
      ],
      "stateMutability": "view",
      "type": "function"
    },
    {
      "inputs": [],
      "name": "geminiDollar",
      "outputs": [
        {
          "internalType": "contract IERC20",
          "name": "",
          "type": "address"
        }
      ],
      "stateMutability": "view",
      "type": "function"
    },
    {
      "inputs": [
        {
          "internalType": "address",
          "name": "_user",
          "type": "address"
        }
      ],
      "name": "getAmountToSendAsIntrest",
      "outputs": [
        {
          "internalType": "uint256",
          "name": "",
          "type": "uint256"
        }
      ],
      "stateMutability": "view",
      "type": "function"
    },
    {
      "inputs": [
        {
          "internalType": "address",
          "name": "_user",
          "type": "address"
        },
        {
          "internalType": "address",
          "name": "_token",
          "type": "address"
        }
      ],
      "name": "getIntrestAmountToSendPerToken",
      "outputs": [
        {
          "internalType": "uint256",
          "name": "",
          "type": "uint256"
        }
      ],
      "stateMutability": "view",
      "type": "function"
    },
    {
      "inputs": [],
      "name": "getMinStakeFee",
      "outputs": [
        {
          "internalType": "uint256",
          "name": "",
          "type": "uint256"
        }
      ],
      "stateMutability": "view",
      "type": "function"
    },
    {
      "inputs": [
        {
          "internalType": "address",
          "name": "",
          "type": "address"
        }
      ],
      "name": "getPricefeedByTokenId",
      "outputs": [
        {
          "internalType": "address",
          "name": "",
          "type": "address"
        }
      ],
      "stateMutability": "view",
      "type": "function"
    },
    {
      "inputs": [
        {
          "internalType": "address",
          "name": "",
          "type": "address"
        },
        {
          "internalType": "address",
          "name": "",
          "type": "address"
        }
      ],
      "name": "getStakedBalanceById",
      "outputs": [
        {
          "internalType": "uint256",
          "name": "",
          "type": "uint256"
        }
      ],
      "stateMutability": "view",
      "type": "function"
    },
    {
      "inputs": [
        {
          "internalType": "address",
          "name": "",
          "type": "address"
        }
      ],
      "name": "getStakersById",
      "outputs": [
        {
          "internalType": "uint256",
          "name": "",
          "type": "uint256"
        }
      ],
      "stateMutability": "view",
      "type": "function"
    },
    {
      "inputs": [
        {
          "internalType": "address",
          "name": "_user",
          "type": "address"
        }
      ],
      "name": "getStakersIdByTheirAddress",
      "outputs": [
        {
          "internalType": "uint256",
          "name": "",
          "type": "uint256"
        }
      ],
      "stateMutability": "nonpayable",
      "type": "function"
    },
    {
      "inputs": [
        {
          "internalType": "address",
          "name": "_token",
          "type": "address"
        }
      ],
      "name": "getTokenPriceFeed",
      "outputs": [
        {
          "internalType": "uint256",
          "name": "",
          "type": "uint256"
        },
        {
          "internalType": "uint256",
          "name": "",
          "type": "uint256"
        }
      ],
      "stateMutability": "view",
      "type": "function"
    },
    {
      "inputs": [
        {
          "internalType": "address",
          "name": "",
          "type": "address"
        }
      ],
      "name": "getUniqueTokenStakedById",
      "outputs": [
        {
          "internalType": "uint256",
          "name": "",
          "type": "uint256"
        }
      ],
      "stateMutability": "view",
      "type": "function"
    },
    {
      "inputs": [
        {
          "internalType": "address",
          "name": "",
          "type": "address"
        }
      ],
      "name": "hasStaked",
      "outputs": [
        {
          "internalType": "bool",
          "name": "",
          "type": "bool"
        }
      ],
      "stateMutability": "view",
      "type": "function"
    },
    {
      "inputs": [
        {
          "internalType": "address",
          "name": "",
          "type": "address"
        }
      ],
      "name": "isStaking",
      "outputs": [
        {
          "internalType": "bool",
          "name": "",
          "type": "bool"
        }
      ],
      "stateMutability": "view",
      "type": "function"
    },
    {
      "inputs": [],
      "name": "name",
      "outputs": [
        {
          "internalType": "string",
          "name": "",
          "type": "string"
        }
      ],
      "stateMutability": "view",
      "type": "function"
    },
    {
      "inputs": [],
      "name": "owner",
      "outputs": [
        {
          "internalType": "address",
          "name": "",
          "type": "address"
        }
      ],
      "stateMutability": "view",
      "type": "function"
    },
    {
      "inputs": [],
      "name": "renounceOwnership",
      "outputs": [],
      "stateMutability": "nonpayable",
      "type": "function"
    },
    {
      "inputs": [],
      "name": "sUsd",
      "outputs": [
        {
          "internalType": "contract IERC20",
          "name": "",
          "type": "address"
        }
      ],
      "stateMutability": "view",
      "type": "function"
    },
    {
      "inputs": [
        {
          "internalType": "address",
          "name": "_token",
          "type": "address"
        },
        {
          "internalType": "address",
          "name": "_pricefeed",
          "type": "address"
        }
      ],
      "name": "setTokenPriceFeed",
      "outputs": [],
      "stateMutability": "nonpayable",
      "type": "function"
    },
    {
      "inputs": [],
      "name": "simbaToken",
      "outputs": [
        {
          "internalType": "contract IERC20",
          "name": "",
          "type": "address"
        }
      ],
      "stateMutability": "view",
      "type": "function"
    },
    {
      "inputs": [
        {
          "internalType": "uint256",
          "name": "",
          "type": "uint256"
        }
      ],
      "name": "stakers",
      "outputs": [
        {
          "internalType": "address",
          "name": "",
          "type": "address"
        }
      ],
      "stateMutability": "view",
      "type": "function"
    },
    {
      "inputs": [],
      "name": "susdt",
      "outputs": [
        {
          "internalType": "contract IERC20",
          "name": "",
          "type": "address"
        }
      ],
      "stateMutability": "view",
      "type": "function"
    },
    {
      "inputs": [
        {
          "internalType": "address",
          "name": "newOwner",
          "type": "address"
        }
      ],
      "name": "transferOwnership",
      "outputs": [],
      "stateMutability": "nonpayable",
      "type": "function"
    },
    {
      "inputs": [
        {
          "internalType": "address",
          "name": "_token",
          "type": "address"
        }
      ],
      "name": "unStake",
      "outputs": [],
      "stateMutability": "nonpayable",
      "type": "function"
    },
    {
      "inputs": [],
      "name": "usdcoin",
      "outputs": [
        {
          "internalType": "contract IERC20",
          "name": "",
          "type": "address"
        }
      ],
      "stateMutability": "view",
      "type": "function"
    }
  ],
  "bytecode": "60c0604052600d60808190526c5969656c64204661726d696e6760981b60a09081526200003091600391906200013c565b503480156200003e57600080fd5b50604051620017d2380380620017d28339810160408190526200006191620001ff565b6200006c33620000ec565b600980546001600160a01b03199081166001600160a01b039889161790915560048054821696881696909617909555600580548616948716949094179093556006805485169286169290921790915560078054841691851691909117905560088054909216921691909117905568056bc75e2d63100000600155620002bd565b600080546001600160a01b038381166001600160a01b0319831681178455604051919092169283917f8be0079c531659141344cd1fd0a4f28419497f9722a3daafe3b4186f6b6457e09190a35050565b8280546200014a9062000280565b90600052602060002090601f0160209004810192826200016e5760008555620001b9565b82601f106200018957805160ff1916838001178555620001b9565b82800160010185558215620001b9579182015b82811115620001b95782518255916020019190600101906200019c565b50620001c7929150620001cb565b5090565b5b80821115620001c75760008155600101620001cc565b80516001600160a01b0381168114620001fa57600080fd5b919050565b60008060008060008060c087890312156200021957600080fd5b6200022487620001e2565b95506200023460208801620001e2565b94506200024460408801620001e2565b93506200025460608801620001e2565b92506200026460808801620001e2565b91506200027460a08801620001e2565b90509295509295509295565b600181811c908216806200029557607f821691505b60208210811415620002b757634e487b7160e01b600052602260045260246000fd5b50919050565b61150580620002cd6000396000f3fe6080604052600436106101d75760003560e01c806365d39b6f11610102578063a21a7cd011610095578063cc00066211610064578063cc0006621461059f578063d19ce579146105bf578063f2fde38b146105ec578063fd5e6dd11461060c57600080fd5b8063a21a7cd0146104ec578063be22f54614610519578063c3a665a514610539578063c93c8f341461056f57600080fd5b806388beab31116100d157806388beab31146104565780638da5cb5b1461048e5780639a6d6ed7146104ac5780639cd95a17146104cc57600080fd5b806365d39b6f146103d1578063674417ae146103f15780636f49712b14610411578063715018a61461044157600080fd5b80632f75f2111161017a5780634440110411610149578063444011041461035c578063448df3fd146103715780635899e7b1146103915780635e5f2e26146103b157600080fd5b80632f75f211146102f4578063360ed714146102fc578063387e49481461031c5780633adf0c531461033c57600080fd5b8063184d411e116101b6578063184d411e14610255578063274a1a001461028d5780632bccdce6146102c25780632d2ec7a9146102d557600080fd5b8062db214a146101dc578063024ec3eb1461021157806306fdde0314610233575b600080fd5b3480156101e857600080fd5b506101fc6101f736600461110d565b61062c565b60405190151581526020015b60405180910390f35b34801561021d57600080fd5b5061023161022c36600461110d565b610696565b005b34801561023f57600080fd5b5061024861071b565b604051610208919061112f565b34801561026157600080fd5b50600454610275906001600160a01b031681565b6040516001600160a01b039091168152602001610208565b34801561029957600080fd5b506102ad6102a836600461110d565b6107a9565b60408051928352602083019190915201610208565b6102316102d0366004611184565b6108aa565b3480156102e157600080fd5b506001545b604051908152602001610208565b610231610aa7565b34801561030857600080fd5b50600554610275906001600160a01b031681565b34801561032857600080fd5b5061023161033736600461110d565b610ba6565b34801561034857600080fd5b50600754610275906001600160a01b031681565b34801561036857600080fd5b50610231610cc2565b34801561037d57600080fd5b506102e661038c36600461110d565b610d21565b34801561039d57600080fd5b50600654610275906001600160a01b031681565b3480156103bd57600080fd5b506102756103cc3660046111b0565b610de0565b3480156103dd57600080fd5b50600854610275906001600160a01b031681565b3480156103fd57600080fd5b5061023161040c3660046111c9565b610e0a565b34801561041d57600080fd5b506101fc61042c36600461110d565b600d6020526000908152604090205460ff1681565b34801561044d57600080fd5b50610231610e62565b34801561046257600080fd5b506102e66104713660046111c9565b600b60209081526000928352604080842090915290825290205481565b34801561049a57600080fd5b506000546001600160a01b0316610275565b3480156104b857600080fd5b506102e66104c736600461110d565b610e98565b3480156104d857600080fd5b506102e66104e73660046111b0565b610ee9565b3480156104f857600080fd5b506102e661050736600461110d565b600e6020526000908152604090205481565b34801561052557600080fd5b50600954610275906001600160a01b031681565b34801561054557600080fd5b5061027561055436600461110d565b600f602052600090815260409020546001600160a01b031681565b34801561057b57600080fd5b506101fc61058a36600461110d565b600c6020526000908152604090205460ff1681565b3480156105ab57600080fd5b506102e66105ba3660046111c9565b610f20565b3480156105cb57600080fd5b506102e66105da36600461110d565b60106020526000908152604090205481565b3480156105f857600080fd5b5061023161060736600461110d565b610fa7565b34801561061857600080fd5b506102756106273660046111b0565b61103f565b6000805b600a5481101561068d57826001600160a01b0316600a8281548110610657576106576111f3565b6000918252602090912001546001600160a01b0316141561067b5750600192915050565b806106858161121f565b915050610630565b50600092915050565b6000546001600160a01b031633146106c95760405162461bcd60e51b81526004016106c09061123a565b60405180910390fd5b600a80546001810182556000919091527fc65a7bb8d6351c1cf70c95a316cc6a92839c986682d98bc35f958f4883f9d2a80180546001600160a01b0319166001600160a01b0392909216919091179055565b600380546107289061126f565b80601f01602080910402602001604051908101604052809291908181526020018280546107549061126f565b80156107a15780601f10610776576101008083540402835291602001916107a1565b820191906000526020600020905b81548152906001019060200180831161078457829003601f168201915b505050505081565b6001600160a01b038082166000908152600f6020526040808220548151633fabe5a360e21b815291519293849391169182918491839163feaf968c9160048082019260a0929091908290030181865afa15801561080a573d6000803e3d6000fd5b505050506040513d601f19601f8201168201806040525081019061082e91906112c4565b5050509150506000826001600160a01b031663313ce5676040518163ffffffff1660e01b8152600401602060405180830381865afa158015610874573d6000803e3d6000fd5b505050506040513d601f19601f820116820180604052508101906108989190611314565b919760ff909216965090945050505050565b6108b38161062c565b6108f65760405162461bcd60e51b8152602060048201526014602482015273151bdad95b881a5cc81b9bdd08185b1b1bddd95960621b60448201526064016106c0565b60015434101561095c5760405162461bcd60e51b815260206004820152602b60248201527f4d696e696d756d20466565205265717569726d656e747320746f205374616b6560448201526a081a5cc81b9bdd081b595d60aa1b60648201526084016106c0565b6040516323b872dd60e01b8152336004820152306024820152604481018390526001600160a01b038216906323b872dd906064016020604051808303816000875af11580156109af573d6000803e3d6000fd5b505050506040513d601f19601f820116820180604052508101906109d39190611337565b506109de338261104f565b6001600160a01b0381166000908152600b6020908152604080832033845290915281208054849290610a11908490611359565b9091555050336000908152600e602052604090205460011415610a7157600280546001810182556000919091527f405787fa12a823e0f2b7631cc41b3ba8828b3321ca811111fa75cd3aa3bb5ace0180546001600160a01b031916331790555b5050336000908152600d602090815260408083208054600160ff199182168117909255600c909352922080549091169091179055565b6000546001600160a01b03163314610ad15760405162461bcd60e51b81526004016106c09061123a565b60005b600254811015610ba357600060028281548110610af357610af36111f3565b60009182526020822001546001600160a01b03169150610b1282610d21565b6004805460405163a9059cbb60e01b81526001600160a01b038681169382019390935260248101849052929350169063a9059cbb906044016020604051808303816000875af1158015610b69573d6000803e3d6000fd5b505050506040513d601f19601f82011682018060405250810190610b8d9190611337565b5050508080610b9b9061121f565b915050610ad4565b50565b6001600160a01b0381166000908152600b602090815260408083203384529091529020548015801590610bdb57506001548110155b610c275760405162461bcd60e51b815260206004820152601f60248201527f596f7572205374616b656420616d6f756e7420697320696e636f72726563740060448201526064016106c0565b60405163a9059cbb60e01b8152336004820152602481018290526001600160a01b0383169063a9059cbb906044016020604051808303816000875af1158015610c74573d6000803e3d6000fd5b505050506040513d601f19601f82011682018060405250810190610c989190611337565b50336000908152600e60205260408120805460019290610cb9908490611371565b90915550505050565b6000546001600160a01b03163314610cec5760405162461bcd60e51b81526004016106c09061123a565b600a805480610cfd57610cfd611388565b600082815260209020810160001990810180546001600160a01b0319169055019055565b6001600160a01b0381166000908152600e60205260408120548190610d7d5760405162461bcd60e51b81526020600482015260126024820152712737903a37b5b2b71039ba30b5b2b217171760711b60448201526064016106c0565b60005b600a54811015610dd957610dbb84600a8381548110610da157610da16111f3565b6000918252602090912001546001600160a01b0316610f20565b610dc59083611359565b915080610dd18161121f565b915050610d80565b5092915050565b600a8181548110610df057600080fd5b6000918252602090912001546001600160a01b0316905081565b6000546001600160a01b03163314610e345760405162461bcd60e51b81526004016106c09061123a565b6001600160a01b039182166000908152600f6020526040902080546001600160a01b03191691909216179055565b6000546001600160a01b03163314610e8c5760405162461bcd60e51b81526004016106c09061123a565b610e9660006110a6565b565b600080805b600254811015610ecb576001600160a01b038416600052601060205280610ec38161121f565b915050610e9d565b5050506001600160a01b031660009081526010602052604090205490565b600080546001600160a01b03163314610f145760405162461bcd60e51b81526004016106c09061123a565b5050600154805b919050565b6001600160a01b0382166000908152600e6020526040812054610f4557506000610fa1565b600080610f51846107a9565b9092509050610f6181600a611482565b6001600160a01b038087166000908152600b6020908152604080832093891683529290522054610f9290849061148e565b610f9c91906114ad565b925050505b92915050565b6000546001600160a01b03163314610fd15760405162461bcd60e51b81526004016106c09061123a565b6001600160a01b0381166110365760405162461bcd60e51b815260206004820152602660248201527f4f776e61626c653a206e6577206f776e657220697320746865207a65726f206160448201526564647265737360d01b60648201526084016106c0565b610ba3816110a6565b60028181548110610df057600080fd5b6001600160a01b038083166000908152600b60209081526040808320938516835292905220546110a2576001600160a01b0382166000908152600e60205260408120805460019290610cb9908490611359565b5050565b600080546001600160a01b038381166001600160a01b0319831681178455604051919092169283917f8be0079c531659141344cd1fd0a4f28419497f9722a3daafe3b4186f6b6457e09190a35050565b80356001600160a01b0381168114610f1b57600080fd5b60006020828403121561111f57600080fd5b611128826110f6565b9392505050565b600060208083528351808285015260005b8181101561115c57858101830151858201604001528201611140565b8181111561116e576000604083870101525b50601f01601f1916929092016040019392505050565b6000806040838503121561119757600080fd5b823591506111a7602084016110f6565b90509250929050565b6000602082840312156111c257600080fd5b5035919050565b600080604083850312156111dc57600080fd5b6111e5836110f6565b91506111a7602084016110f6565b634e487b7160e01b600052603260045260246000fd5b634e487b7160e01b600052601160045260246000fd5b600060001982141561123357611233611209565b5060010190565b6020808252818101527f4f776e61626c653a2063616c6c6572206973206e6f7420746865206f776e6572604082015260600190565b600181811c9082168061128357607f821691505b602082108114156112a457634e487b7160e01b600052602260045260246000fd5b50919050565b805169ffffffffffffffffffff81168114610f1b57600080fd5b600080600080600060a086880312156112dc57600080fd5b6112e5866112aa565b9450602086015193506040860151925060608601519150611308608087016112aa565b90509295509295909350565b60006020828403121561132657600080fd5b815160ff8116811461112857600080fd5b60006020828403121561134957600080fd5b8151801515811461112857600080fd5b6000821982111561136c5761136c611209565b500190565b60008282101561138357611383611209565b500390565b634e487b7160e01b600052603160045260246000fd5b600181815b808511156113d95781600019048211156113bf576113bf611209565b808516156113cc57918102915b93841c93908002906113a3565b509250929050565b6000826113f057506001610fa1565b816113fd57506000610fa1565b8160018114611413576002811461141d57611439565b6001915050610fa1565b60ff84111561142e5761142e611209565b50506001821b610fa1565b5060208310610133831016604e8410600b841016171561145c575081810a610fa1565b611466838361139e565b806000190482111561147a5761147a611209565b029392505050565b600061112883836113e1565b60008160001904831182151516156114a8576114a8611209565b500290565b6000826114ca57634e487b7160e01b600052601260045260246000fd5b50049056fea264697066735822122079a2a8d99971f518d761487a22b2838eea177826bb9f321db4396b371eae978e64736f6c634300080a0033",
  "bytecodeSha1": "47ffc54a3ecd40cb282c5a18473887fd86708a39",
  "compiler": {
    "evm_version": "istanbul",
    "optimizer": {
      "enabled": true,
      "runs": 200
    },
    "version": "0.8.10+commit.fc410830"
  },
  "contractName": "YieldFarm",
  "language": "Solidity",
  "natspec": {
    "kind": "dev",
    "methods": {
      "owner()": {
        "details": "Returns the address of the current owner."
      },
      "renounceOwnership()": {
        "details": "Leaves the contract without owner. It will not be possible to call `onlyOwner` functions anymore. Can only be called by the current owner. NOTE: Renouncing ownership will leave the contract without an owner, thereby removing any functionality that is only available to the owner."
      },
      "transferOwnership(address)": {
        "details": "Transfers ownership of the contract to a new account (`newOwner`). Can only be called by the current owner."
      }
    },
    "version": 1
  },
  "opcodes": "PUSH1 0x80 PUSH1 0x40 MSTORE PUSH1 0x4 CALLDATASIZE LT PUSH2 0x1D7 JUMPI PUSH1 0x0 CALLDATALOAD PUSH1 0xE0 SHR DUP1 PUSH4 0x65D39B6F GT PUSH2 0x102 JUMPI DUP1 PUSH4 0xA21A7CD0 GT PUSH2 0x95 JUMPI DUP1 PUSH4 0xCC000662 GT PUSH2 0x64 JUMPI DUP1 PUSH4 0xCC000662 EQ PUSH2 0x59F JUMPI DUP1 PUSH4 0xD19CE579 EQ PUSH2 0x5BF JUMPI DUP1 PUSH4 0xF2FDE38B EQ PUSH2 0x5EC JUMPI DUP1 PUSH4 0xFD5E6DD1 EQ PUSH2 0x60C JUMPI PUSH1 0x0 DUP1 REVERT JUMPDEST DUP1 PUSH4 0xA21A7CD0 EQ PUSH2 0x4EC JUMPI DUP1 PUSH4 0xBE22F546 EQ PUSH2 0x519 JUMPI DUP1 PUSH4 0xC3A665A5 EQ PUSH2 0x539 JUMPI DUP1 PUSH4 0xC93C8F34 EQ PUSH2 0x56F JUMPI PUSH1 0x0 DUP1 REVERT JUMPDEST DUP1 PUSH4 0x88BEAB31 GT PUSH2 0xD1 JUMPI DUP1 PUSH4 0x88BEAB31 EQ PUSH2 0x456 JUMPI DUP1 PUSH4 0x8DA5CB5B EQ PUSH2 0x48E JUMPI DUP1 PUSH4 0x9A6D6ED7 EQ PUSH2 0x4AC JUMPI DUP1 PUSH4 0x9CD95A17 EQ PUSH2 0x4CC JUMPI PUSH1 0x0 DUP1 REVERT JUMPDEST DUP1 PUSH4 0x65D39B6F EQ PUSH2 0x3D1 JUMPI DUP1 PUSH4 0x674417AE EQ PUSH2 0x3F1 JUMPI DUP1 PUSH4 0x6F49712B EQ PUSH2 0x411 JUMPI DUP1 PUSH4 0x715018A6 EQ PUSH2 0x441 JUMPI PUSH1 0x0 DUP1 REVERT JUMPDEST DUP1 PUSH4 0x2F75F211 GT PUSH2 0x17A JUMPI DUP1 PUSH4 0x44401104 GT PUSH2 0x149 JUMPI DUP1 PUSH4 0x44401104 EQ PUSH2 0x35C JUMPI DUP1 PUSH4 0x448DF3FD EQ PUSH2 0x371 JUMPI DUP1 PUSH4 0x5899E7B1 EQ PUSH2 0x391 JUMPI DUP1 PUSH4 0x5E5F2E26 EQ PUSH2 0x3B1 JUMPI PUSH1 0x0 DUP1 REVERT JUMPDEST DUP1 PUSH4 0x2F75F211 EQ PUSH2 0x2F4 JUMPI DUP1 PUSH4 0x360ED714 EQ PUSH2 0x2FC JUMPI DUP1 PUSH4 0x387E4948 EQ PUSH2 0x31C JUMPI DUP1 PUSH4 0x3ADF0C53 EQ PUSH2 0x33C JUMPI PUSH1 0x0 DUP1 REVERT JUMPDEST DUP1 PUSH4 0x184D411E GT PUSH2 0x1B6 JUMPI DUP1 PUSH4 0x184D411E EQ PUSH2 0x255 JUMPI DUP1 PUSH4 0x274A1A00 EQ PUSH2 0x28D JUMPI DUP1 PUSH4 0x2BCCDCE6 EQ PUSH2 0x2C2 JUMPI DUP1 PUSH4 0x2D2EC7A9 EQ PUSH2 0x2D5 JUMPI PUSH1 0x0 DUP1 REVERT JUMPDEST DUP1 PUSH3 0xDB214A EQ PUSH2 0x1DC JUMPI DUP1 PUSH4 0x24EC3EB EQ PUSH2 0x211 JUMPI DUP1 PUSH4 0x6FDDE03 EQ PUSH2 0x233 JUMPI JUMPDEST PUSH1 0x0 DUP1 REVERT JUMPDEST CALLVALUE DUP1 ISZERO PUSH2 0x1E8 JUMPI PUSH1 0x0 DUP1 REVERT JUMPDEST POP PUSH2 0x1FC PUSH2 0x1F7 CALLDATASIZE PUSH1 0x4 PUSH2 0x110D JUMP JUMPDEST PUSH2 0x62C JUMP JUMPDEST PUSH1 0x40 MLOAD SWAP1 ISZERO ISZERO DUP2 MSTORE PUSH1 0x20 ADD JUMPDEST PUSH1 0x40 MLOAD DUP1 SWAP2 SUB SWAP1 RETURN JUMPDEST CALLVALUE DUP1 ISZERO PUSH2 0x21D JUMPI PUSH1 0x0 DUP1 REVERT JUMPDEST POP PUSH2 0x231 PUSH2 0x22C CALLDATASIZE PUSH1 0x4 PUSH2 0x110D JUMP JUMPDEST PUSH2 0x696 JUMP JUMPDEST STOP JUMPDEST CALLVALUE DUP1 ISZERO PUSH2 0x23F JUMPI PUSH1 0x0 DUP1 REVERT JUMPDEST POP PUSH2 0x248 PUSH2 0x71B JUMP JUMPDEST PUSH1 0x40 MLOAD PUSH2 0x208 SWAP2 SWAP1 PUSH2 0x112F JUMP JUMPDEST CALLVALUE DUP1 ISZERO PUSH2 0x261 JUMPI PUSH1 0x0 DUP1 REVERT JUMPDEST POP PUSH1 0x4 SLOAD PUSH2 0x275 SWAP1 PUSH1 0x1 PUSH1 0x1 PUSH1 0xA0 SHL SUB AND DUP2 JUMP JUMPDEST PUSH1 0x40 MLOAD PUSH1 0x1 PUSH1 0x1 PUSH1 0xA0 SHL SUB SWAP1 SWAP2 AND DUP2 MSTORE PUSH1 0x20 ADD PUSH2 0x208 JUMP JUMPDEST CALLVALUE DUP1 ISZERO PUSH2 0x299 JUMPI PUSH1 0x0 DUP1 REVERT JUMPDEST POP PUSH2 0x2AD PUSH2 0x2A8 CALLDATASIZE PUSH1 0x4 PUSH2 0x110D JUMP JUMPDEST PUSH2 0x7A9 JUMP JUMPDEST PUSH1 0x40 DUP1 MLOAD SWAP3 DUP4 MSTORE PUSH1 0x20 DUP4 ADD SWAP2 SWAP1 SWAP2 MSTORE ADD PUSH2 0x208 JUMP JUMPDEST PUSH2 0x231 PUSH2 0x2D0 CALLDATASIZE PUSH1 0x4 PUSH2 0x1184 JUMP JUMPDEST PUSH2 0x8AA JUMP JUMPDEST CALLVALUE DUP1 ISZERO PUSH2 0x2E1 JUMPI PUSH1 0x0 DUP1 REVERT JUMPDEST POP PUSH1 0x1 SLOAD JUMPDEST PUSH1 0x40 MLOAD SWAP1 DUP2 MSTORE PUSH1 0x20 ADD PUSH2 0x208 JUMP JUMPDEST PUSH2 0x231 PUSH2 0xAA7 JUMP JUMPDEST CALLVALUE DUP1 ISZERO PUSH2 0x308 JUMPI PUSH1 0x0 DUP1 REVERT JUMPDEST POP PUSH1 0x5 SLOAD PUSH2 0x275 SWAP1 PUSH1 0x1 PUSH1 0x1 PUSH1 0xA0 SHL SUB AND DUP2 JUMP JUMPDEST CALLVALUE DUP1 ISZERO PUSH2 0x328 JUMPI PUSH1 0x0 DUP1 REVERT JUMPDEST POP PUSH2 0x231 PUSH2 0x337 CALLDATASIZE PUSH1 0x4 PUSH2 0x110D JUMP JUMPDEST PUSH2 0xBA6 JUMP JUMPDEST CALLVALUE DUP1 ISZERO PUSH2 0x348 JUMPI PUSH1 0x0 DUP1 REVERT JUMPDEST POP PUSH1 0x7 SLOAD PUSH2 0x275 SWAP1 PUSH1 0x1 PUSH1 0x1 PUSH1 0xA0 SHL SUB AND DUP2 JUMP JUMPDEST CALLVALUE DUP1 ISZERO PUSH2 0x368 JUMPI PUSH1 0x0 DUP1 REVERT JUMPDEST POP PUSH2 0x231 PUSH2 0xCC2 JUMP JUMPDEST CALLVALUE DUP1 ISZERO PUSH2 0x37D JUMPI PUSH1 0x0 DUP1 REVERT JUMPDEST POP PUSH2 0x2E6 PUSH2 0x38C CALLDATASIZE PUSH1 0x4 PUSH2 0x110D JUMP JUMPDEST PUSH2 0xD21 JUMP JUMPDEST CALLVALUE DUP1 ISZERO PUSH2 0x39D JUMPI PUSH1 0x0 DUP1 REVERT JUMPDEST POP PUSH1 0x6 SLOAD PUSH2 0x275 SWAP1 PUSH1 0x1 PUSH1 0x1 PUSH1 0xA0 SHL SUB AND DUP2 JUMP JUMPDEST CALLVALUE DUP1 ISZERO PUSH2 0x3BD JUMPI PUSH1 0x0 DUP1 REVERT JUMPDEST POP PUSH2 0x275 PUSH2 0x3CC CALLDATASIZE PUSH1 0x4 PUSH2 0x11B0 JUMP JUMPDEST PUSH2 0xDE0 JUMP JUMPDEST CALLVALUE DUP1 ISZERO PUSH2 0x3DD JUMPI PUSH1 0x0 DUP1 REVERT JUMPDEST POP PUSH1 0x8 SLOAD PUSH2 0x275 SWAP1 PUSH1 0x1 PUSH1 0x1 PUSH1 0xA0 SHL SUB AND DUP2 JUMP JUMPDEST CALLVALUE DUP1 ISZERO PUSH2 0x3FD JUMPI PUSH1 0x0 DUP1 REVERT JUMPDEST POP PUSH2 0x231 PUSH2 0x40C CALLDATASIZE PUSH1 0x4 PUSH2 0x11C9 JUMP JUMPDEST PUSH2 0xE0A JUMP JUMPDEST CALLVALUE DUP1 ISZERO PUSH2 0x41D JUMPI PUSH1 0x0 DUP1 REVERT JUMPDEST POP PUSH2 0x1FC PUSH2 0x42C CALLDATASIZE PUSH1 0x4 PUSH2 0x110D JUMP JUMPDEST PUSH1 0xD PUSH1 0x20 MSTORE PUSH1 0x0 SWAP1 DUP2 MSTORE PUSH1 0x40 SWAP1 KECCAK256 SLOAD PUSH1 0xFF AND DUP2 JUMP JUMPDEST CALLVALUE DUP1 ISZERO PUSH2 0x44D JUMPI PUSH1 0x0 DUP1 REVERT JUMPDEST POP PUSH2 0x231 PUSH2 0xE62 JUMP JUMPDEST CALLVALUE DUP1 ISZERO PUSH2 0x462 JUMPI PUSH1 0x0 DUP1 REVERT JUMPDEST POP PUSH2 0x2E6 PUSH2 0x471 CALLDATASIZE PUSH1 0x4 PUSH2 0x11C9 JUMP JUMPDEST PUSH1 0xB PUSH1 0x20 SWAP1 DUP2 MSTORE PUSH1 0x0 SWAP3 DUP4 MSTORE PUSH1 0x40 DUP1 DUP5 KECCAK256 SWAP1 SWAP2 MSTORE SWAP1 DUP3 MSTORE SWAP1 KECCAK256 SLOAD DUP2 JUMP JUMPDEST CALLVALUE DUP1 ISZERO PUSH2 0x49A JUMPI PUSH1 0x0 DUP1 REVERT JUMPDEST POP PUSH1 0x0 SLOAD PUSH1 0x1 PUSH1 0x1 PUSH1 0xA0 SHL SUB AND PUSH2 0x275 JUMP JUMPDEST CALLVALUE DUP1 ISZERO PUSH2 0x4B8 JUMPI PUSH1 0x0 DUP1 REVERT JUMPDEST POP PUSH2 0x2E6 PUSH2 0x4C7 CALLDATASIZE PUSH1 0x4 PUSH2 0x110D JUMP JUMPDEST PUSH2 0xE98 JUMP JUMPDEST CALLVALUE DUP1 ISZERO PUSH2 0x4D8 JUMPI PUSH1 0x0 DUP1 REVERT JUMPDEST POP PUSH2 0x2E6 PUSH2 0x4E7 CALLDATASIZE PUSH1 0x4 PUSH2 0x11B0 JUMP JUMPDEST PUSH2 0xEE9 JUMP JUMPDEST CALLVALUE DUP1 ISZERO PUSH2 0x4F8 JUMPI PUSH1 0x0 DUP1 REVERT JUMPDEST POP PUSH2 0x2E6 PUSH2 0x507 CALLDATASIZE PUSH1 0x4 PUSH2 0x110D JUMP JUMPDEST PUSH1 0xE PUSH1 0x20 MSTORE PUSH1 0x0 SWAP1 DUP2 MSTORE PUSH1 0x40 SWAP1 KECCAK256 SLOAD DUP2 JUMP JUMPDEST CALLVALUE DUP1 ISZERO PUSH2 0x525 JUMPI PUSH1 0x0 DUP1 REVERT JUMPDEST POP PUSH1 0x9 SLOAD PUSH2 0x275 SWAP1 PUSH1 0x1 PUSH1 0x1 PUSH1 0xA0 SHL SUB AND DUP2 JUMP JUMPDEST CALLVALUE DUP1 ISZERO PUSH2 0x545 JUMPI PUSH1 0x0 DUP1 REVERT JUMPDEST POP PUSH2 0x275 PUSH2 0x554 CALLDATASIZE PUSH1 0x4 PUSH2 0x110D JUMP JUMPDEST PUSH1 0xF PUSH1 0x20 MSTORE PUSH1 0x0 SWAP1 DUP2 MSTORE PUSH1 0x40 SWAP1 KECCAK256 SLOAD PUSH1 0x1 PUSH1 0x1 PUSH1 0xA0 SHL SUB AND DUP2 JUMP JUMPDEST CALLVALUE DUP1 ISZERO PUSH2 0x57B JUMPI PUSH1 0x0 DUP1 REVERT JUMPDEST POP PUSH2 0x1FC PUSH2 0x58A CALLDATASIZE PUSH1 0x4 PUSH2 0x110D JUMP JUMPDEST PUSH1 0xC PUSH1 0x20 MSTORE PUSH1 0x0 SWAP1 DUP2 MSTORE PUSH1 0x40 SWAP1 KECCAK256 SLOAD PUSH1 0xFF AND DUP2 JUMP JUMPDEST CALLVALUE DUP1 ISZERO PUSH2 0x5AB JUMPI PUSH1 0x0 DUP1 REVERT JUMPDEST POP PUSH2 0x2E6 PUSH2 0x5BA CALLDATASIZE PUSH1 0x4 PUSH2 0x11C9 JUMP JUMPDEST PUSH2 0xF20 JUMP JUMPDEST CALLVALUE DUP1 ISZERO PUSH2 0x5CB JUMPI PUSH1 0x0 DUP1 REVERT JUMPDEST POP PUSH2 0x2E6 PUSH2 0x5DA CALLDATASIZE PUSH1 0x4 PUSH2 0x110D JUMP JUMPDEST PUSH1 0x10 PUSH1 0x20 MSTORE PUSH1 0x0 SWAP1 DUP2 MSTORE PUSH1 0x40 SWAP1 KECCAK256 SLOAD DUP2 JUMP JUMPDEST CALLVALUE DUP1 ISZERO PUSH2 0x5F8 JUMPI PUSH1 0x0 DUP1 REVERT JUMPDEST POP PUSH2 0x231 PUSH2 0x607 CALLDATASIZE PUSH1 0x4 PUSH2 0x110D JUMP JUMPDEST PUSH2 0xFA7 JUMP JUMPDEST CALLVALUE DUP1 ISZERO PUSH2 0x618 JUMPI PUSH1 0x0 DUP1 REVERT JUMPDEST POP PUSH2 0x275 PUSH2 0x627 CALLDATASIZE PUSH1 0x4 PUSH2 0x11B0 JUMP JUMPDEST PUSH2 0x103F JUMP JUMPDEST PUSH1 0x0 DUP1 JUMPDEST PUSH1 0xA SLOAD DUP2 LT ISZERO PUSH2 0x68D JUMPI DUP3 PUSH1 0x1 PUSH1 0x1 PUSH1 0xA0 SHL SUB AND PUSH1 0xA DUP3 DUP2 SLOAD DUP2 LT PUSH2 0x657 JUMPI PUSH2 0x657 PUSH2 0x11F3 JUMP JUMPDEST PUSH1 0x0 SWAP2 DUP3 MSTORE PUSH1 0x20 SWAP1 SWAP2 KECCAK256 ADD SLOAD PUSH1 0x1 PUSH1 0x1 PUSH1 0xA0 SHL SUB AND EQ ISZERO PUSH2 0x67B JUMPI POP PUSH1 0x1 SWAP3 SWAP2 POP POP JUMP JUMPDEST DUP1 PUSH2 0x685 DUP2 PUSH2 0x121F JUMP JUMPDEST SWAP2 POP POP PUSH2 0x630 JUMP JUMPDEST POP PUSH1 0x0 SWAP3 SWAP2 POP POP JUMP JUMPDEST PUSH1 0x0 SLOAD PUSH1 0x1 PUSH1 0x1 PUSH1 0xA0 SHL SUB AND CALLER EQ PUSH2 0x6C9 JUMPI PUSH1 0x40 MLOAD PUSH3 0x461BCD PUSH1 0xE5 SHL DUP2 MSTORE PUSH1 0x4 ADD PUSH2 0x6C0 SWAP1 PUSH2 0x123A JUMP JUMPDEST PUSH1 0x40 MLOAD DUP1 SWAP2 SUB SWAP1 REVERT JUMPDEST PUSH1 0xA DUP1 SLOAD PUSH1 0x1 DUP2 ADD DUP3 SSTORE PUSH1 0x0 SWAP2 SWAP1 SWAP2 MSTORE PUSH32 0xC65A7BB8D6351C1CF70C95A316CC6A92839C986682D98BC35F958F4883F9D2A8 ADD DUP1 SLOAD PUSH1 0x1 PUSH1 0x1 PUSH1 0xA0 SHL SUB NOT AND PUSH1 0x1 PUSH1 0x1 PUSH1 0xA0 SHL SUB SWAP3 SWAP1 SWAP3 AND SWAP2 SWAP1 SWAP2 OR SWAP1 SSTORE JUMP JUMPDEST PUSH1 0x3 DUP1 SLOAD PUSH2 0x728 SWAP1 PUSH2 0x126F JUMP JUMPDEST DUP1 PUSH1 0x1F ADD PUSH1 0x20 DUP1 SWAP2 DIV MUL PUSH1 0x20 ADD PUSH1 0x40 MLOAD SWAP1 DUP2 ADD PUSH1 0x40 MSTORE DUP1 SWAP3 SWAP2 SWAP1 DUP2 DUP2 MSTORE PUSH1 0x20 ADD DUP3 DUP1 SLOAD PUSH2 0x754 SWAP1 PUSH2 0x126F JUMP JUMPDEST DUP1 ISZERO PUSH2 0x7A1 JUMPI DUP1 PUSH1 0x1F LT PUSH2 0x776 JUMPI PUSH2 0x100 DUP1 DUP4 SLOAD DIV MUL DUP4 MSTORE SWAP2 PUSH1 0x20 ADD SWAP2 PUSH2 0x7A1 JUMP JUMPDEST DUP3 ADD SWAP2 SWAP1 PUSH1 0x0 MSTORE PUSH1 0x20 PUSH1 0x0 KECCAK256 SWAP1 JUMPDEST DUP2 SLOAD DUP2 MSTORE SWAP1 PUSH1 0x1 ADD SWAP1 PUSH1 0x20 ADD DUP1 DUP4 GT PUSH2 0x784 JUMPI DUP3 SWAP1 SUB PUSH1 0x1F AND DUP3 ADD SWAP2 JUMPDEST POP POP POP POP POP DUP2 JUMP JUMPDEST PUSH1 0x1 PUSH1 0x1 PUSH1 0xA0 SHL SUB DUP1 DUP3 AND PUSH1 0x0 SWAP1 DUP2 MSTORE PUSH1 0xF PUSH1 0x20 MSTORE PUSH1 0x40 DUP1 DUP3 KECCAK256 SLOAD DUP2 MLOAD PUSH4 0x3FABE5A3 PUSH1 0xE2 SHL DUP2 MSTORE SWAP2 MLOAD SWAP3 SWAP4 DUP5 SWAP4 SWAP2 AND SWAP2 DUP3 SWAP2 DUP5 SWAP2 DUP4 SWAP2 PUSH4 0xFEAF968C SWAP2 PUSH1 0x4 DUP1 DUP3 ADD SWAP3 PUSH1 0xA0 SWAP3 SWAP1 SWAP2 SWAP1 DUP3 SWAP1 SUB ADD DUP2 DUP7 GAS STATICCALL ISZERO DUP1 ISZERO PUSH2 0x80A JUMPI RETURNDATASIZE PUSH1 0x0 DUP1 RETURNDATACOPY RETURNDATASIZE PUSH1 0x0 REVERT JUMPDEST POP POP POP POP PUSH1 0x40 MLOAD RETURNDATASIZE PUSH1 0x1F NOT PUSH1 0x1F DUP3 ADD AND DUP3 ADD DUP1 PUSH1 0x40 MSTORE POP DUP2 ADD SWAP1 PUSH2 0x82E SWAP2 SWAP1 PUSH2 0x12C4 JUMP JUMPDEST POP POP POP SWAP2 POP POP PUSH1 0x0 DUP3 PUSH1 0x1 PUSH1 0x1 PUSH1 0xA0 SHL SUB AND PUSH4 0x313CE567 PUSH1 0x40 MLOAD DUP2 PUSH4 0xFFFFFFFF AND PUSH1 0xE0 SHL DUP2 MSTORE PUSH1 0x4 ADD PUSH1 0x20 PUSH1 0x40 MLOAD DUP1 DUP4 SUB DUP2 DUP7 GAS STATICCALL ISZERO DUP1 ISZERO PUSH2 0x874 JUMPI RETURNDATASIZE PUSH1 0x0 DUP1 RETURNDATACOPY RETURNDATASIZE PUSH1 0x0 REVERT JUMPDEST POP POP POP POP PUSH1 0x40 MLOAD RETURNDATASIZE PUSH1 0x1F NOT PUSH1 0x1F DUP3 ADD AND DUP3 ADD DUP1 PUSH1 0x40 MSTORE POP DUP2 ADD SWAP1 PUSH2 0x898 SWAP2 SWAP1 PUSH2 0x1314 JUMP JUMPDEST SWAP2 SWAP8 PUSH1 0xFF SWAP1 SWAP3 AND SWAP7 POP SWAP1 SWAP5 POP POP POP POP POP JUMP JUMPDEST PUSH2 0x8B3 DUP2 PUSH2 0x62C JUMP JUMPDEST PUSH2 0x8F6 JUMPI PUSH1 0x40 MLOAD PUSH3 0x461BCD PUSH1 0xE5 SHL DUP2 MSTORE PUSH1 0x20 PUSH1 0x4 DUP3 ADD MSTORE PUSH1 0x14 PUSH1 0x24 DUP3 ADD MSTORE PUSH20 0x151BDAD95B881A5CC81B9BDD08185B1B1BDDD959 PUSH1 0x62 SHL PUSH1 0x44 DUP3 ADD MSTORE PUSH1 0x64 ADD PUSH2 0x6C0 JUMP JUMPDEST PUSH1 0x1 SLOAD CALLVALUE LT ISZERO PUSH2 0x95C JUMPI PUSH1 0x40 MLOAD PUSH3 0x461BCD PUSH1 0xE5 SHL DUP2 MSTORE PUSH1 0x20 PUSH1 0x4 DUP3 ADD MSTORE PUSH1 0x2B PUSH1 0x24 DUP3 ADD MSTORE PUSH32 0x4D696E696D756D20466565205265717569726D656E747320746F205374616B65 PUSH1 0x44 DUP3 ADD MSTORE PUSH11 0x81A5CC81B9BDD081B595D PUSH1 0xAA SHL PUSH1 0x64 DUP3 ADD MSTORE PUSH1 0x84 ADD PUSH2 0x6C0 JUMP JUMPDEST PUSH1 0x40 MLOAD PUSH4 0x23B872DD PUSH1 0xE0 SHL DUP2 MSTORE CALLER PUSH1 0x4 DUP3 ADD MSTORE ADDRESS PUSH1 0x24 DUP3 ADD MSTORE PUSH1 0x44 DUP2 ADD DUP4 SWAP1 MSTORE PUSH1 0x1 PUSH1 0x1 PUSH1 0xA0 SHL SUB DUP3 AND SWAP1 PUSH4 0x23B872DD SWAP1 PUSH1 0x64 ADD PUSH1 0x20 PUSH1 0x40 MLOAD DUP1 DUP4 SUB DUP2 PUSH1 0x0 DUP8 GAS CALL ISZERO DUP1 ISZERO PUSH2 0x9AF JUMPI RETURNDATASIZE PUSH1 0x0 DUP1 RETURNDATACOPY RETURNDATASIZE PUSH1 0x0 REVERT JUMPDEST POP POP POP POP PUSH1 0x40 MLOAD RETURNDATASIZE PUSH1 0x1F NOT PUSH1 0x1F DUP3 ADD AND DUP3 ADD DUP1 PUSH1 0x40 MSTORE POP DUP2 ADD SWAP1 PUSH2 0x9D3 SWAP2 SWAP1 PUSH2 0x1337 JUMP JUMPDEST POP PUSH2 0x9DE CALLER DUP3 PUSH2 0x104F JUMP JUMPDEST PUSH1 0x1 PUSH1 0x1 PUSH1 0xA0 SHL SUB DUP2 AND PUSH1 0x0 SWAP1 DUP2 MSTORE PUSH1 0xB PUSH1 0x20 SWAP1 DUP2 MSTORE PUSH1 0x40 DUP1 DUP4 KECCAK256 CALLER DUP5 MSTORE SWAP1 SWAP2 MSTORE DUP2 KECCAK256 DUP1 SLOAD DUP5 SWAP3 SWAP1 PUSH2 0xA11 SWAP1 DUP5 SWAP1 PUSH2 0x1359 JUMP JUMPDEST SWAP1 SWAP2 SSTORE POP POP CALLER PUSH1 0x0 SWAP1 DUP2 MSTORE PUSH1 0xE PUSH1 0x20 MSTORE PUSH1 0x40 SWAP1 KECCAK256 SLOAD PUSH1 0x1 EQ ISZERO PUSH2 0xA71 JUMPI PUSH1 0x2 DUP1 SLOAD PUSH1 0x1 DUP2 ADD DUP3 SSTORE PUSH1 0x0 SWAP2 SWAP1 SWAP2 MSTORE PUSH32 0x405787FA12A823E0F2B7631CC41B3BA8828B3321CA811111FA75CD3AA3BB5ACE ADD DUP1 SLOAD PUSH1 0x1 PUSH1 0x1 PUSH1 0xA0 SHL SUB NOT AND CALLER OR SWAP1 SSTORE JUMPDEST POP POP CALLER PUSH1 0x0 SWAP1 DUP2 MSTORE PUSH1 0xD PUSH1 0x20 SWAP1 DUP2 MSTORE PUSH1 0x40 DUP1 DUP4 KECCAK256 DUP1 SLOAD PUSH1 0x1 PUSH1 0xFF NOT SWAP2 DUP3 AND DUP2 OR SWAP1 SWAP3 SSTORE PUSH1 0xC SWAP1 SWAP4 MSTORE SWAP3 KECCAK256 DUP1 SLOAD SWAP1 SWAP2 AND SWAP1 SWAP2 OR SWAP1 SSTORE JUMP JUMPDEST PUSH1 0x0 SLOAD PUSH1 0x1 PUSH1 0x1 PUSH1 0xA0 SHL SUB AND CALLER EQ PUSH2 0xAD1 JUMPI PUSH1 0x40 MLOAD PUSH3 0x461BCD PUSH1 0xE5 SHL DUP2 MSTORE PUSH1 0x4 ADD PUSH2 0x6C0 SWAP1 PUSH2 0x123A JUMP JUMPDEST PUSH1 0x0 JUMPDEST PUSH1 0x2 SLOAD DUP2 LT ISZERO PUSH2 0xBA3 JUMPI PUSH1 0x0 PUSH1 0x2 DUP3 DUP2 SLOAD DUP2 LT PUSH2 0xAF3 JUMPI PUSH2 0xAF3 PUSH2 0x11F3 JUMP JUMPDEST PUSH1 0x0 SWAP2 DUP3 MSTORE PUSH1 0x20 DUP3 KECCAK256 ADD SLOAD PUSH1 0x1 PUSH1 0x1 PUSH1 0xA0 SHL SUB AND SWAP2 POP PUSH2 0xB12 DUP3 PUSH2 0xD21 JUMP JUMPDEST PUSH1 0x4 DUP1 SLOAD PUSH1 0x40 MLOAD PUSH4 0xA9059CBB PUSH1 0xE0 SHL DUP2 MSTORE PUSH1 0x1 PUSH1 0x1 PUSH1 0xA0 SHL SUB DUP7 DUP2 AND SWAP4 DUP3 ADD SWAP4 SWAP1 SWAP4 MSTORE PUSH1 0x24 DUP2 ADD DUP5 SWAP1 MSTORE SWAP3 SWAP4 POP AND SWAP1 PUSH4 0xA9059CBB SWAP1 PUSH1 0x44 ADD PUSH1 0x20 PUSH1 0x40 MLOAD DUP1 DUP4 SUB DUP2 PUSH1 0x0 DUP8 GAS CALL ISZERO DUP1 ISZERO PUSH2 0xB69 JUMPI RETURNDATASIZE PUSH1 0x0 DUP1 RETURNDATACOPY RETURNDATASIZE PUSH1 0x0 REVERT JUMPDEST POP POP POP POP PUSH1 0x40 MLOAD RETURNDATASIZE PUSH1 0x1F NOT PUSH1 0x1F DUP3 ADD AND DUP3 ADD DUP1 PUSH1 0x40 MSTORE POP DUP2 ADD SWAP1 PUSH2 0xB8D SWAP2 SWAP1 PUSH2 0x1337 JUMP JUMPDEST POP POP POP DUP1 DUP1 PUSH2 0xB9B SWAP1 PUSH2 0x121F JUMP JUMPDEST SWAP2 POP POP PUSH2 0xAD4 JUMP JUMPDEST POP JUMP JUMPDEST PUSH1 0x1 PUSH1 0x1 PUSH1 0xA0 SHL SUB DUP2 AND PUSH1 0x0 SWAP1 DUP2 MSTORE PUSH1 0xB PUSH1 0x20 SWAP1 DUP2 MSTORE PUSH1 0x40 DUP1 DUP4 KECCAK256 CALLER DUP5 MSTORE SWAP1 SWAP2 MSTORE SWAP1 KECCAK256 SLOAD DUP1 ISZERO DUP1 ISZERO SWAP1 PUSH2 0xBDB JUMPI POP PUSH1 0x1 SLOAD DUP2 LT ISZERO JUMPDEST PUSH2 0xC27 JUMPI PUSH1 0x40 MLOAD PUSH3 0x461BCD PUSH1 0xE5 SHL DUP2 MSTORE PUSH1 0x20 PUSH1 0x4 DUP3 ADD MSTORE PUSH1 0x1F PUSH1 0x24 DUP3 ADD MSTORE PUSH32 0x596F7572205374616B656420616D6F756E7420697320696E636F727265637400 PUSH1 0x44 DUP3 ADD MSTORE PUSH1 0x64 ADD PUSH2 0x6C0 JUMP JUMPDEST PUSH1 0x40 MLOAD PUSH4 0xA9059CBB PUSH1 0xE0 SHL DUP2 MSTORE CALLER PUSH1 0x4 DUP3 ADD MSTORE PUSH1 0x24 DUP2 ADD DUP3 SWAP1 MSTORE PUSH1 0x1 PUSH1 0x1 PUSH1 0xA0 SHL SUB DUP4 AND SWAP1 PUSH4 0xA9059CBB SWAP1 PUSH1 0x44 ADD PUSH1 0x20 PUSH1 0x40 MLOAD DUP1 DUP4 SUB DUP2 PUSH1 0x0 DUP8 GAS CALL ISZERO DUP1 ISZERO PUSH2 0xC74 JUMPI RETURNDATASIZE PUSH1 0x0 DUP1 RETURNDATACOPY RETURNDATASIZE PUSH1 0x0 REVERT JUMPDEST POP POP POP POP PUSH1 0x40 MLOAD RETURNDATASIZE PUSH1 0x1F NOT PUSH1 0x1F DUP3 ADD AND DUP3 ADD DUP1 PUSH1 0x40 MSTORE POP DUP2 ADD SWAP1 PUSH2 0xC98 SWAP2 SWAP1 PUSH2 0x1337 JUMP JUMPDEST POP CALLER PUSH1 0x0 SWAP1 DUP2 MSTORE PUSH1 0xE PUSH1 0x20 MSTORE PUSH1 0x40 DUP2 KECCAK256 DUP1 SLOAD PUSH1 0x1 SWAP3 SWAP1 PUSH2 0xCB9 SWAP1 DUP5 SWAP1 PUSH2 0x1371 JUMP JUMPDEST SWAP1 SWAP2 SSTORE POP POP POP POP JUMP JUMPDEST PUSH1 0x0 SLOAD PUSH1 0x1 PUSH1 0x1 PUSH1 0xA0 SHL SUB AND CALLER EQ PUSH2 0xCEC JUMPI PUSH1 0x40 MLOAD PUSH3 0x461BCD PUSH1 0xE5 SHL DUP2 MSTORE PUSH1 0x4 ADD PUSH2 0x6C0 SWAP1 PUSH2 0x123A JUMP JUMPDEST PUSH1 0xA DUP1 SLOAD DUP1 PUSH2 0xCFD JUMPI PUSH2 0xCFD PUSH2 0x1388 JUMP JUMPDEST PUSH1 0x0 DUP3 DUP2 MSTORE PUSH1 0x20 SWAP1 KECCAK256 DUP2 ADD PUSH1 0x0 NOT SWAP1 DUP2 ADD DUP1 SLOAD PUSH1 0x1 PUSH1 0x1 PUSH1 0xA0 SHL SUB NOT AND SWAP1 SSTORE ADD SWAP1 SSTORE JUMP JUMPDEST PUSH1 0x1 PUSH1 0x1 PUSH1 0xA0 SHL SUB DUP2 AND PUSH1 0x0 SWAP1 DUP2 MSTORE PUSH1 0xE PUSH1 0x20 MSTORE PUSH1 0x40 DUP2 KECCAK256 SLOAD DUP2 SWAP1 PUSH2 0xD7D JUMPI PUSH1 0x40 MLOAD PUSH3 0x461BCD PUSH1 0xE5 SHL DUP2 MSTORE PUSH1 0x20 PUSH1 0x4 DUP3 ADD MSTORE PUSH1 0x12 PUSH1 0x24 DUP3 ADD MSTORE PUSH18 0x2737903A37B5B2B71039BA30B5B2B2171717 PUSH1 0x71 SHL PUSH1 0x44 DUP3 ADD MSTORE PUSH1 0x64 ADD PUSH2 0x6C0 JUMP JUMPDEST PUSH1 0x0 JUMPDEST PUSH1 0xA SLOAD DUP2 LT ISZERO PUSH2 0xDD9 JUMPI PUSH2 0xDBB DUP5 PUSH1 0xA DUP4 DUP2 SLOAD DUP2 LT PUSH2 0xDA1 JUMPI PUSH2 0xDA1 PUSH2 0x11F3 JUMP JUMPDEST PUSH1 0x0 SWAP2 DUP3 MSTORE PUSH1 0x20 SWAP1 SWAP2 KECCAK256 ADD SLOAD PUSH1 0x1 PUSH1 0x1 PUSH1 0xA0 SHL SUB AND PUSH2 0xF20 JUMP JUMPDEST PUSH2 0xDC5 SWAP1 DUP4 PUSH2 0x1359 JUMP JUMPDEST SWAP2 POP DUP1 PUSH2 0xDD1 DUP2 PUSH2 0x121F JUMP JUMPDEST SWAP2 POP POP PUSH2 0xD80 JUMP JUMPDEST POP SWAP3 SWAP2 POP POP JUMP JUMPDEST PUSH1 0xA DUP2 DUP2 SLOAD DUP2 LT PUSH2 0xDF0 JUMPI PUSH1 0x0 DUP1 REVERT JUMPDEST PUSH1 0x0 SWAP2 DUP3 MSTORE PUSH1 0x20 SWAP1 SWAP2 KECCAK256 ADD SLOAD PUSH1 0x1 PUSH1 0x1 PUSH1 0xA0 SHL SUB AND SWAP1 POP DUP2 JUMP JUMPDEST PUSH1 0x0 SLOAD PUSH1 0x1 PUSH1 0x1 PUSH1 0xA0 SHL SUB AND CALLER EQ PUSH2 0xE34 JUMPI PUSH1 0x40 MLOAD PUSH3 0x461BCD PUSH1 0xE5 SHL DUP2 MSTORE PUSH1 0x4 ADD PUSH2 0x6C0 SWAP1 PUSH2 0x123A JUMP JUMPDEST PUSH1 0x1 PUSH1 0x1 PUSH1 0xA0 SHL SUB SWAP2 DUP3 AND PUSH1 0x0 SWAP1 DUP2 MSTORE PUSH1 0xF PUSH1 0x20 MSTORE PUSH1 0x40 SWAP1 KECCAK256 DUP1 SLOAD PUSH1 0x1 PUSH1 0x1 PUSH1 0xA0 SHL SUB NOT AND SWAP2 SWAP1 SWAP3 AND OR SWAP1 SSTORE JUMP JUMPDEST PUSH1 0x0 SLOAD PUSH1 0x1 PUSH1 0x1 PUSH1 0xA0 SHL SUB AND CALLER EQ PUSH2 0xE8C JUMPI PUSH1 0x40 MLOAD PUSH3 0x461BCD PUSH1 0xE5 SHL DUP2 MSTORE PUSH1 0x4 ADD PUSH2 0x6C0 SWAP1 PUSH2 0x123A JUMP JUMPDEST PUSH2 0xE96 PUSH1 0x0 PUSH2 0x10A6 JUMP JUMPDEST JUMP JUMPDEST PUSH1 0x0 DUP1 DUP1 JUMPDEST PUSH1 0x2 SLOAD DUP2 LT ISZERO PUSH2 0xECB JUMPI PUSH1 0x1 PUSH1 0x1 PUSH1 0xA0 SHL SUB DUP5 AND PUSH1 0x0 MSTORE PUSH1 0x10 PUSH1 0x20 MSTORE DUP1 PUSH2 0xEC3 DUP2 PUSH2 0x121F JUMP JUMPDEST SWAP2 POP POP PUSH2 0xE9D JUMP JUMPDEST POP POP POP PUSH1 0x1 PUSH1 0x1 PUSH1 0xA0 SHL SUB AND PUSH1 0x0 SWAP1 DUP2 MSTORE PUSH1 0x10 PUSH1 0x20 MSTORE PUSH1 0x40 SWAP1 KECCAK256 SLOAD SWAP1 JUMP JUMPDEST PUSH1 0x0 DUP1 SLOAD PUSH1 0x1 PUSH1 0x1 PUSH1 0xA0 SHL SUB AND CALLER EQ PUSH2 0xF14 JUMPI PUSH1 0x40 MLOAD PUSH3 0x461BCD PUSH1 0xE5 SHL DUP2 MSTORE PUSH1 0x4 ADD PUSH2 0x6C0 SWAP1 PUSH2 0x123A JUMP JUMPDEST POP POP PUSH1 0x1 SLOAD DUP1 JUMPDEST SWAP2 SWAP1 POP JUMP JUMPDEST PUSH1 0x1 PUSH1 0x1 PUSH1 0xA0 SHL SUB DUP3 AND PUSH1 0x0 SWAP1 DUP2 MSTORE PUSH1 0xE PUSH1 0x20 MSTORE PUSH1 0x40 DUP2 KECCAK256 SLOAD PUSH2 0xF45 JUMPI POP PUSH1 0x0 PUSH2 0xFA1 JUMP JUMPDEST PUSH1 0x0 DUP1 PUSH2 0xF51 DUP5 PUSH2 0x7A9 JUMP JUMPDEST SWAP1 SWAP3 POP SWAP1 POP PUSH2 0xF61 DUP2 PUSH1 0xA PUSH2 0x1482 JUMP JUMPDEST PUSH1 0x1 PUSH1 0x1 PUSH1 0xA0 SHL SUB DUP1 DUP8 AND PUSH1 0x0 SWAP1 DUP2 MSTORE PUSH1 0xB PUSH1 0x20 SWAP1 DUP2 MSTORE PUSH1 0x40 DUP1 DUP4 KECCAK256 SWAP4 DUP10 AND DUP4 MSTORE SWAP3 SWAP1 MSTORE KECCAK256 SLOAD PUSH2 0xF92 SWAP1 DUP5 SWAP1 PUSH2 0x148E JUMP JUMPDEST PUSH2 0xF9C SWAP2 SWAP1 PUSH2 0x14AD JUMP JUMPDEST SWAP3 POP POP POP JUMPDEST SWAP3 SWAP2 POP POP JUMP JUMPDEST PUSH1 0x0 SLOAD PUSH1 0x1 PUSH1 0x1 PUSH1 0xA0 SHL SUB AND CALLER EQ PUSH2 0xFD1 JUMPI PUSH1 0x40 MLOAD PUSH3 0x461BCD PUSH1 0xE5 SHL DUP2 MSTORE PUSH1 0x4 ADD PUSH2 0x6C0 SWAP1 PUSH2 0x123A JUMP JUMPDEST PUSH1 0x1 PUSH1 0x1 PUSH1 0xA0 SHL SUB DUP2 AND PUSH2 0x1036 JUMPI PUSH1 0x40 MLOAD PUSH3 0x461BCD PUSH1 0xE5 SHL DUP2 MSTORE PUSH1 0x20 PUSH1 0x4 DUP3 ADD MSTORE PUSH1 0x26 PUSH1 0x24 DUP3 ADD MSTORE PUSH32 0x4F776E61626C653A206E6577206F776E657220697320746865207A65726F2061 PUSH1 0x44 DUP3 ADD MSTORE PUSH6 0x646472657373 PUSH1 0xD0 SHL PUSH1 0x64 DUP3 ADD MSTORE PUSH1 0x84 ADD PUSH2 0x6C0 JUMP JUMPDEST PUSH2 0xBA3 DUP2 PUSH2 0x10A6 JUMP JUMPDEST PUSH1 0x2 DUP2 DUP2 SLOAD DUP2 LT PUSH2 0xDF0 JUMPI PUSH1 0x0 DUP1 REVERT JUMPDEST PUSH1 0x1 PUSH1 0x1 PUSH1 0xA0 SHL SUB DUP1 DUP4 AND PUSH1 0x0 SWAP1 DUP2 MSTORE PUSH1 0xB PUSH1 0x20 SWAP1 DUP2 MSTORE PUSH1 0x40 DUP1 DUP4 KECCAK256 SWAP4 DUP6 AND DUP4 MSTORE SWAP3 SWAP1 MSTORE KECCAK256 SLOAD PUSH2 0x10A2 JUMPI PUSH1 0x1 PUSH1 0x1 PUSH1 0xA0 SHL SUB DUP3 AND PUSH1 0x0 SWAP1 DUP2 MSTORE PUSH1 0xE PUSH1 0x20 MSTORE PUSH1 0x40 DUP2 KECCAK256 DUP1 SLOAD PUSH1 0x1 SWAP3 SWAP1 PUSH2 0xCB9 SWAP1 DUP5 SWAP1 PUSH2 0x1359 JUMP JUMPDEST POP POP JUMP JUMPDEST PUSH1 0x0 DUP1 SLOAD PUSH1 0x1 PUSH1 0x1 PUSH1 0xA0 SHL SUB DUP4 DUP2 AND PUSH1 0x1 PUSH1 0x1 PUSH1 0xA0 SHL SUB NOT DUP4 AND DUP2 OR DUP5 SSTORE PUSH1 0x40 MLOAD SWAP2 SWAP1 SWAP3 AND SWAP3 DUP4 SWAP2 PUSH32 0x8BE0079C531659141344CD1FD0A4F28419497F9722A3DAAFE3B4186F6B6457E0 SWAP2 SWAP1 LOG3 POP POP JUMP JUMPDEST DUP1 CALLDATALOAD PUSH1 0x1 PUSH1 0x1 PUSH1 0xA0 SHL SUB DUP2 AND DUP2 EQ PUSH2 0xF1B JUMPI PUSH1 0x0 DUP1 REVERT JUMPDEST PUSH1 0x0 PUSH1 0x20 DUP3 DUP5 SUB SLT ISZERO PUSH2 0x111F JUMPI PUSH1 0x0 DUP1 REVERT JUMPDEST PUSH2 0x1128 DUP3 PUSH2 0x10F6 JUMP JUMPDEST SWAP4 SWAP3 POP POP POP JUMP JUMPDEST PUSH1 0x0 PUSH1 0x20 DUP1 DUP4 MSTORE DUP4 MLOAD DUP1 DUP3 DUP6 ADD MSTORE PUSH1 0x0 JUMPDEST DUP2 DUP2 LT ISZERO PUSH2 0x115C JUMPI DUP6 DUP2 ADD DUP4 ADD MLOAD DUP6 DUP3 ADD PUSH1 0x40 ADD MSTORE DUP3 ADD PUSH2 0x1140 JUMP JUMPDEST DUP2 DUP2 GT ISZERO PUSH2 0x116E JUMPI PUSH1 0x0 PUSH1 0x40 DUP4 DUP8 ADD ADD MSTORE JUMPDEST POP PUSH1 0x1F ADD PUSH1 0x1F NOT AND SWAP3 SWAP1 SWAP3 ADD PUSH1 0x40 ADD SWAP4 SWAP3 POP POP POP JUMP JUMPDEST PUSH1 0x0 DUP1 PUSH1 0x40 DUP4 DUP6 SUB SLT ISZERO PUSH2 0x1197 JUMPI PUSH1 0x0 DUP1 REVERT JUMPDEST DUP3 CALLDATALOAD SWAP2 POP PUSH2 0x11A7 PUSH1 0x20 DUP5 ADD PUSH2 0x10F6 JUMP JUMPDEST SWAP1 POP SWAP3 POP SWAP3 SWAP1 POP JUMP JUMPDEST PUSH1 0x0 PUSH1 0x20 DUP3 DUP5 SUB SLT ISZERO PUSH2 0x11C2 JUMPI PUSH1 0x0 DUP1 REVERT JUMPDEST POP CALLDATALOAD SWAP2 SWAP1 POP JUMP JUMPDEST PUSH1 0x0 DUP1 PUSH1 0x40 DUP4 DUP6 SUB SLT ISZERO PUSH2 0x11DC JUMPI PUSH1 0x0 DUP1 REVERT JUMPDEST PUSH2 0x11E5 DUP4 PUSH2 0x10F6 JUMP JUMPDEST SWAP2 POP PUSH2 0x11A7 PUSH1 0x20 DUP5 ADD PUSH2 0x10F6 JUMP JUMPDEST PUSH4 0x4E487B71 PUSH1 0xE0 SHL PUSH1 0x0 MSTORE PUSH1 0x32 PUSH1 0x4 MSTORE PUSH1 0x24 PUSH1 0x0 REVERT JUMPDEST PUSH4 0x4E487B71 PUSH1 0xE0 SHL PUSH1 0x0 MSTORE PUSH1 0x11 PUSH1 0x4 MSTORE PUSH1 0x24 PUSH1 0x0 REVERT JUMPDEST PUSH1 0x0 PUSH1 0x0 NOT DUP3 EQ ISZERO PUSH2 0x1233 JUMPI PUSH2 0x1233 PUSH2 0x1209 JUMP JUMPDEST POP PUSH1 0x1 ADD SWAP1 JUMP JUMPDEST PUSH1 0x20 DUP1 DUP3 MSTORE DUP2 DUP2 ADD MSTORE PUSH32 0x4F776E61626C653A2063616C6C6572206973206E6F7420746865206F776E6572 PUSH1 0x40 DUP3 ADD MSTORE PUSH1 0x60 ADD SWAP1 JUMP JUMPDEST PUSH1 0x1 DUP2 DUP2 SHR SWAP1 DUP3 AND DUP1 PUSH2 0x1283 JUMPI PUSH1 0x7F DUP3 AND SWAP2 POP JUMPDEST PUSH1 0x20 DUP3 LT DUP2 EQ ISZERO PUSH2 0x12A4 JUMPI PUSH4 0x4E487B71 PUSH1 0xE0 SHL PUSH1 0x0 MSTORE PUSH1 0x22 PUSH1 0x4 MSTORE PUSH1 0x24 PUSH1 0x0 REVERT JUMPDEST POP SWAP2 SWAP1 POP JUMP JUMPDEST DUP1 MLOAD PUSH10 0xFFFFFFFFFFFFFFFFFFFF DUP2 AND DUP2 EQ PUSH2 0xF1B JUMPI PUSH1 0x0 DUP1 REVERT JUMPDEST PUSH1 0x0 DUP1 PUSH1 0x0 DUP1 PUSH1 0x0 PUSH1 0xA0 DUP7 DUP9 SUB SLT ISZERO PUSH2 0x12DC JUMPI PUSH1 0x0 DUP1 REVERT JUMPDEST PUSH2 0x12E5 DUP7 PUSH2 0x12AA JUMP JUMPDEST SWAP5 POP PUSH1 0x20 DUP7 ADD MLOAD SWAP4 POP PUSH1 0x40 DUP7 ADD MLOAD SWAP3 POP PUSH1 0x60 DUP7 ADD MLOAD SWAP2 POP PUSH2 0x1308 PUSH1 0x80 DUP8 ADD PUSH2 0x12AA JUMP JUMPDEST SWAP1 POP SWAP3 SWAP6 POP SWAP3 SWAP6 SWAP1 SWAP4 POP JUMP JUMPDEST PUSH1 0x0 PUSH1 0x20 DUP3 DUP5 SUB SLT ISZERO PUSH2 0x1326 JUMPI PUSH1 0x0 DUP1 REVERT JUMPDEST DUP2 MLOAD PUSH1 0xFF DUP2 AND DUP2 EQ PUSH2 0x1128 JUMPI PUSH1 0x0 DUP1 REVERT JUMPDEST PUSH1 0x0 PUSH1 0x20 DUP3 DUP5 SUB SLT ISZERO PUSH2 0x1349 JUMPI PUSH1 0x0 DUP1 REVERT JUMPDEST DUP2 MLOAD DUP1 ISZERO ISZERO DUP2 EQ PUSH2 0x1128 JUMPI PUSH1 0x0 DUP1 REVERT JUMPDEST PUSH1 0x0 DUP3 NOT DUP3 GT ISZERO PUSH2 0x136C JUMPI PUSH2 0x136C PUSH2 0x1209 JUMP JUMPDEST POP ADD SWAP1 JUMP JUMPDEST PUSH1 0x0 DUP3 DUP3 LT ISZERO PUSH2 0x1383 JUMPI PUSH2 0x1383 PUSH2 0x1209 JUMP JUMPDEST POP SUB SWAP1 JUMP JUMPDEST PUSH4 0x4E487B71 PUSH1 0xE0 SHL PUSH1 0x0 MSTORE PUSH1 0x31 PUSH1 0x4 MSTORE PUSH1 0x24 PUSH1 0x0 REVERT JUMPDEST PUSH1 0x1 DUP2 DUP2 JUMPDEST DUP1 DUP6 GT ISZERO PUSH2 0x13D9 JUMPI DUP2 PUSH1 0x0 NOT DIV DUP3 GT ISZERO PUSH2 0x13BF JUMPI PUSH2 0x13BF PUSH2 0x1209 JUMP JUMPDEST DUP1 DUP6 AND ISZERO PUSH2 0x13CC JUMPI SWAP2 DUP2 MUL SWAP2 JUMPDEST SWAP4 DUP5 SHR SWAP4 SWAP1 DUP1 MUL SWAP1 PUSH2 0x13A3 JUMP JUMPDEST POP SWAP3 POP SWAP3 SWAP1 POP JUMP JUMPDEST PUSH1 0x0 DUP3 PUSH2 0x13F0 JUMPI POP PUSH1 0x1 PUSH2 0xFA1 JUMP JUMPDEST DUP2 PUSH2 0x13FD JUMPI POP PUSH1 0x0 PUSH2 0xFA1 JUMP JUMPDEST DUP2 PUSH1 0x1 DUP2 EQ PUSH2 0x1413 JUMPI PUSH1 0x2 DUP2 EQ PUSH2 0x141D JUMPI PUSH2 0x1439 JUMP JUMPDEST PUSH1 0x1 SWAP2 POP POP PUSH2 0xFA1 JUMP JUMPDEST PUSH1 0xFF DUP5 GT ISZERO PUSH2 0x142E JUMPI PUSH2 0x142E PUSH2 0x1209 JUMP JUMPDEST POP POP PUSH1 0x1 DUP3 SHL PUSH2 0xFA1 JUMP JUMPDEST POP PUSH1 0x20 DUP4 LT PUSH2 0x133 DUP4 LT AND PUSH1 0x4E DUP5 LT PUSH1 0xB DUP5 LT AND OR ISZERO PUSH2 0x145C JUMPI POP DUP2 DUP2 EXP PUSH2 0xFA1 JUMP JUMPDEST PUSH2 0x1466 DUP4 DUP4 PUSH2 0x139E JUMP JUMPDEST DUP1 PUSH1 0x0 NOT DIV DUP3 GT ISZERO PUSH2 0x147A JUMPI PUSH2 0x147A PUSH2 0x1209 JUMP JUMPDEST MUL SWAP4 SWAP3 POP POP POP JUMP JUMPDEST PUSH1 0x0 PUSH2 0x1128 DUP4 DUP4 PUSH2 0x13E1 JUMP JUMPDEST PUSH1 0x0 DUP2 PUSH1 0x0 NOT DIV DUP4 GT DUP3 ISZERO ISZERO AND ISZERO PUSH2 0x14A8 JUMPI PUSH2 0x14A8 PUSH2 0x1209 JUMP JUMPDEST POP MUL SWAP1 JUMP JUMPDEST PUSH1 0x0 DUP3 PUSH2 0x14CA JUMPI PUSH4 0x4E487B71 PUSH1 0xE0 SHL PUSH1 0x0 MSTORE PUSH1 0x12 PUSH1 0x4 MSTORE PUSH1 0x24 PUSH1 0x0 REVERT JUMPDEST POP DIV SWAP1 JUMP INVALID LOG2 PUSH5 0x6970667358 0x22 SLT KECCAK256 PUSH26 0xA2A8D99971F518D761487A22B2838EEA177826BB9F321DB4396B CALLDATACOPY 0x1E 0xAE SWAP8 DUP15 PUSH5 0x736F6C6343 STOP ADDMOD EXP STOP CALLER ",
  "sha1": "b65739e888b4a08e86f74085e894908a67b2659c",
  "source": "//SPDX-License-Identifier:MIT\n\npragma solidity ^0.8.0;\n\nimport \"./SimbaToken.sol\";\nimport \"./DaiToken.sol\";\nimport \"@openzeppelin/contracts/access/Ownable.sol\";\n// This interface represents all tokens that will be added to this Defi Application\nimport \"@openzeppelin/contracts/token/ERC20/IERC20.sol\";\nimport \"@chainlink/contracts/src/v0.8/interfaces/AggregatorV3Interface.sol\";\n\ncontract YieldFarm is Ownable {\n    //deploy dai token\n    //deploy simba token\n    //minimum staking fee\n    //stake tokens\n    //award intrests after a specified period\n    //unstake tokens\n\n    // ############################################################################\n\n    uint256 minimumStakeAmount;\n    address[] public stakers;\n    string public name = \"Yield Farming\";\n    IERC20 public simbaToken;\n    IERC20 public geminiDollar;\n    IERC20 public sUsd;\n    IERC20 public susdt;\n    IERC20 public usdcoin;\n    IERC20 public daiToken;\n    address[] public allowedTokens;\n    // ############################################################################\n    //the address of the token mapped to the users address mapped to the amount he/she staked\n    mapping(address => mapping(address => uint256)) public getStakedBalanceById;\n    // verify if user has staked;\n    mapping(address => bool) public hasStaked;\n    //check if user is currently stakin\n    mapping(address => bool) public isStaking;\n    //returns a single token from a list of allowed tokens\n    mapping(address => uint256) public getUniqueTokenStakedById;\n    //gets the current price value of each token matched with ethereum price value\n    mapping(address => address) public getPricefeedByTokenId;\n    //from a list of users that have staked get a users from that list by his/her id\n    mapping(address => uint256) public getStakersById;\n\n    // ############################################################################\n\n    constructor(\n        address _daitoken,\n        address _simbatoken,\n        address _geminiDollar,\n        address _sUsd,\n        address _susdt,\n        address _usdcoin\n    ) public {\n        daiToken = IERC20(_daitoken);\n        simbaToken = IERC20(_simbatoken);\n        geminiDollar = IERC20(_geminiDollar);\n        sUsd = IERC20(_sUsd);\n        susdt = IERC20(_susdt);\n        usdcoin = IERC20(_usdcoin);\n\n        //minimum staking amount is $100\n        minimumStakeAmount = 100 ether;\n    }\n\n    // ############################################################################\n    function getStakersIdByTheirAddress(address _user)\n        public\n        returns (uint256)\n    {\n        //inital value set\n        uint256 userAddress = 0;\n        //\n        for (uint256 i = 0; i < stakers.length; i++) {\n            //\n            if (getStakersById[_user] < 0) {\n                revert(\"User not Found\");\n            }\n        }\n        return getStakersById[_user];\n    }\n\n    // ############################################################################\n\n    function changeMinStakeFee(uint256 _price)\n        public\n        view\n        onlyOwner\n        returns (uint256)\n    {\n        //changes the minimum amount of staking fee and admin wishes to\n        return _price = minimumStakeAmount;\n    }\n\n    // ############################################################################\n\n    function getMinStakeFee() public view returns (uint256) {\n        //if the user has upto $100 he can stake else exit\n        return minimumStakeAmount;\n    }\n\n    // ############################################################################\n\n    function Stake(uint256 _amount, address _token) public payable {\n        require(AllowedTokenForStaking(_token), \"Token is not allowed\");\n        //getting the minimum required fee to invest\n        require(\n            msg.value >= getMinStakeFee(),\n            \"Minimum Fee Requirments to Stake is not met\"\n        );\n        //user deposits minimum amout of token required to invest to this contract\n        IERC20(_token).transferFrom(msg.sender, address(this), _amount);\n        //get if user has already staked on a token\n        getUniqueTokenUserStaked(msg.sender, _token);\n        //mapping for each user & how much he/she staked\n        //the staking balance of a user on a specfic token is set or added up if he/she wishes to stake more\n        getStakedBalanceById[_token][msg.sender] += _amount;\n        //get stake status\n        if (getUniqueTokenStakedById[msg.sender] == 1) {\n            //if a user has staked on a token add him/her to a list of stakers\n            stakers.push(msg.sender);\n        }\n        //status\n        isStaking[msg.sender] = true;\n        hasStaked[msg.sender] = true;\n    }\n\n    // ############################################################################\n    //gets the amount of token user has/is currently staking in\n    function getUniqueTokenUserStaked(address _user, address _token) internal {\n        //if the current reading balance of a user on a token reads 0 add new else update\n        if (getStakedBalanceById[_user][_token] <= 0) {\n            getUniqueTokenStakedById[_user] += 1;\n        }\n    }\n\n    // ############################################################################\n    function AddTokens(address _token) public onlyOwner {\n        // only admin can add tokens\n        allowedTokens.push(_token);\n    }\n\n    // ############################################################################\n    function RemoveLastToken() public onlyOwner {\n        // only admin can remove last tokens listed in the series of tokens\n        allowedTokens.pop();\n    }\n\n    // ############################################################################\n\n    function AllowedTokenForStaking(address _token) public returns (bool) {\n        //only tokens listed can be staked on\n        for (uint256 i = 0; i < allowedTokens.length; i++) {\n            if (allowedTokens[i] == _token) {\n                return true;\n            }\n        }\n        return false;\n    }\n\n    // ############################################################################\n\n    function unStake(address _token) public {\n        uint256 userBalance = getStakedBalanceById[_token][msg.sender];\n        //\n        require(\n            userBalance > 0 && userBalance >= getMinStakeFee(),\n            \"Your Staked amount is incorrect\"\n        );\n        //\n        //transfer the accurate value the user staked initially i.e all amount no left overs\n        IERC20(_token).transfer(msg.sender, userBalance);\n        //update users balance to be 0\n        getStakedBalanceById[_token][msg.sender] == 0;\n        //remove user unique token from staked token list\n        getUniqueTokenStakedById[msg.sender] -= 1;\n    }\n\n    // ############################################################################\n\n    function AwardIntrests() public payable onlyOwner {\n        //looping through all stakers list\n\n        for (uint256 i = 0; i < stakers.length; i++) {\n            //get the user\n            address user = stakers[i];\n            //mapped address of the user connecting he/she balance ###getting the balance\n            uint256 amountToSend = getAmountToSendAsIntrest(user);\n            //sending the intrest\n            simbaToken.transfer(user, amountToSend);\n            // sending rewards only if the balance from the array shows that the user has staked so\n            // if less than or equal to zero they have not staked\n        }\n    }\n\n    // ############################################################################\n    function setTokenPriceFeed(address _token, address _pricefeed)\n        public\n        onlyOwner\n    {\n        getPricefeedByTokenId[_token] = _pricefeed;\n    }\n\n    // ############################################################################\n\n    function getTokenPriceFeed(address _token)\n        public\n        view\n        returns (uint256, uint256)\n    {\n        //gets the token\n        address tokenAddress = getPricefeedByTokenId[_token];\n        //gets the pricefeed of the unique token output from the list\n        AggregatorV3Interface priceFeed = AggregatorV3Interface(tokenAddress);\n        //returns the price feed of the token\n        (, int256 price, , , ) = priceFeed.latestRoundData();\n        uint256 decimals = uint256(priceFeed.decimals());\n        //returned price\n        return (uint256(price), decimals);\n    }\n\n    // ############################################################################\n    function getAmountToSendAsIntrest(address _user)\n        public\n        view\n        returns (uint256)\n    {\n        uint256 totalAmount = 0;\n        //ensures the users must have an amount staked on a token\n        require(getUniqueTokenStakedById[_user] > 0, \"No token staked...\");\n        //find token users has staked in\n        for (uint256 i; i < allowedTokens.length; i++) {\n            totalAmount += getIntrestAmountToSendPerToken(\n                _user,\n                allowedTokens[i]\n            );\n        }\n        return totalAmount;\n    }\n\n    // ############################################################################\n\n    function getIntrestAmountToSendPerToken(address _user, address _token)\n        public\n        view\n        returns (uint256)\n    {\n        if (getUniqueTokenStakedById[_user] <= 0) {\n            return 0;\n        }\n        (uint256 pricefeed, uint256 decimals) = getTokenPriceFeed(_token);\n        return ((getStakedBalanceById[_user][_token] * pricefeed) /\n            (10**decimals));\n    }\n}\n",
  "sourcePath": "contracts/YieldFarm.sol",
  "type": "contract"
}